:100000000C9435000C945D000C945D000C945D0024
:100010000C945D000C945D000C945D000C945D00EC
:100020000C945D000C945D000C945D000C945D00DC
:100030000C945D000C945D000C945D000C945D00CC
:100040000C94BC010C945D000C942C020C940602E0
:100050000C945D000C945D000C945D000C945D00AC
:100060000C945D000C945D00E80211241FBECFEFDC
:10007000D8E0DEBFCDBF11E0A0E0B1E0E8E8F6E0F7
:1000800002C005900D92A631B107D9F721E0A6E193
:10009000B1E001C01D92AC3BB207E1F710E0C5E34F
:1000A000D0E004C02197FE010E943703C433D1077A
:1000B000C9F70E945E020C9442030C940000CF9298
:1000C000DF92EF92FF920F931F93CF93DF936C0118
:1000D0007A018B01C0E0D0E0CE15DF0589F0D801B0
:1000E0006D918D01D601ED91FC910190F081E02D93
:1000F000C6010995892B11F47E0102C02196ECCF2F
:10010000C701DF91CF911F910F91FF90EF90DF908A
:10011000CF900895089580E090E00895FC01538DFC
:10012000448D252F30E0842F90E0821B930B5417D1
:1001300010F0CF96089501970895FC01918D828D5E
:10014000981761F0828DDF01A80FB11D5D968C912B
:10015000928D9F5F9F73928F90E008958FEF9FEF36
:100160000895FC01918D828D981731F0828DE80FF2
:10017000F11D858D90E008958FEF9FEF0895FC01AC
:10018000918D228D892F90E0805C9F4F821B910979
:100190008F73992708958FE191E00E94BF0021E0BD
:1001A000892B09F420E0822F0895FC01848DDF0162
:1001B000A80FB11DA35ABF4F2C91848D90E00196DA
:1001C0008F739927848FA689B7892C93A089B189C9
:1001D0008C9180648C93938D848D981306C00288D3
:1001E000F389E02D80818F7D80830895EF92FF92C7
:1001F0000F931F93CF93DF93EC0181E0888F9B8D4A
:100200008C8D981305C0E889F989808185FD24C00B
:10021000F62E0B8D10E00F5F1F4F0F731127E02E8E
:100220008C8DE8120CC00FB607FCFACFE889F9896B
:10023000808185FFF5CFCE010E94D500F1CF8B8D57
:10024000FE01E80FF11DE35AFF4FF0820B8FEA89A0
:10025000FB898081806207C0EE89FF896083E8891D
:10026000F98980818064808381E090E0DF91CF9183
:100270001F910F91FF90EF900895CF93DF93EC01C2
:10028000888D8823C9F0EA89FB89808185FD05C0B6
:10029000A889B9898C9186FD0FC00FB607FCF5CFF0
:1002A000808185FFF2CFA889B9898C9185FFEDCF38
:1002B000CE010E94D500E7CFDF91CF91089580E075
:1002C00090E0892B29F00E94CB0081110C94000052
:1002D00008958F929F92AF92BF920F931F93CF93E7
:1002E000DF93CDB7DEB7A1970FB6F894DEBF0FBE90
:1002F000CDBF19A2423008F44AE08E010F5D1F4FB6
:10030000842E912CA12CB12CA50194010E941503DF
:10031000E62FB901CA0101501109EA3014F4E05D79
:1003200001C0E95CD801EC93232B242B252B61F72A
:100330000115110571F0F80101900020E9F73197DE
:10034000AF01401B510BB8018FE191E00E945F00AB
:1003500002C080E090E0A1960FB6F894DEBF0FBE19
:10036000CDBFDF91CF911F910F91BF90AF909F9024
:100370008F9008950E943D031F920F920FB60F9227
:1003800011242F933F938F939F93AF93BF938091AB
:100390001B0190911C01A0911D01B0911E01309193
:1003A0001A0123E0230F2D3720F40196A11DB11D62
:1003B00005C026E8230F0296A11DB11D20931A0146
:1003C00080931B0190931C01A0931D01B0931E010B
:1003D0008091160190911701A0911801B091190117
:1003E0000196A11DB11D8093160190931701A09352
:1003F0001801B0931901BF91AF919F918F913F91D7
:100400002F910F900FBE0F901F9018951F920F9273
:100410000FB60F9211242F933F934F935F936F93D7
:100420007F938F939F93AF93BF93EF93FF938FE14E
:1004300091E00E94D500FF91EF91BF91AF919F9104
:100440008F917F916F915F914F913F912F910F907D
:100450000FBE0F901F9018951F920F920FB60F921C
:1004600011242F938F939F93EF93FF93E0912F018C
:10047000F09130018081E0913501F091360182FDEB
:1004800012C09081809138018F5F8F732091390164
:10049000821751F0E0913801F0E0E15EFE4F958F58
:1004A0008093380101C08081FF91EF919F918F91DE
:1004B0002F910F900FBE0F901F901895789484B5D0
:1004C000826084BD84B5816084BD85B5826085BD50
:1004D00085B5816085BD80916E00816080936E00DE
:1004E00010928100809181008260809381008091D0
:1004F0008100816080938100809180008160809381
:1005000080008091B10084608093B1008091B00040
:1005100081608093B00080917A00846080937A003B
:1005200080917A00826080937A0080917A00816065
:1005300080937A0080917A00806880937A0010928C
:10054000C100E0912F01F091300182E08083E091C1
:100550002B01F0912C011082E0912D01F0912E01E0
:1005600088E0808310923701E0913301F0913401EB
:1005700086E08083E0913101F091320180818061D9
:100580008083E0913101F091320180818860808325
:10059000E0913101F0913201808180688083E091A7
:1005A0003101F091320180818F7D80834AE062EDDC
:1005B00074E080E090E00E94690142E050E062E176
:1005C00071E08FE191E00E945F000E945F01EECF39
:1005D000EFE1F1E01382128288EE93E0A0E0B0E058
:1005E00084839583A683B78384E091E0918380839D
:1005F00085EC90E09587848784EC90E097878687E8
:1006000080EC90E0918B808B81EC90E0938B828BDF
:1006100082EC90E0958B848B86EC90E0978B868BB8
:10062000118E128E138E148E0895A1E21A2EAA1B1B
:10063000BB1BFD010DC0AA1FBB1FEE1FFF1FA21792
:10064000B307E407F50720F0A21BB30BE40BF50B8F
:10065000661F771F881F991F1A9469F76095709518
:10066000809590959B01AC01BD01CF010895EE0FDF
:10067000FF1F0590F491E02D099481E090E0F8943B
:080680000C944203F894FFCF33
:1006880000000000F6005F008E003D01BF009D00E5
:06069800B1000D0A000094
:00000001FF
